{
  "contractName": "HelloWorld",
  "abi": [
    {
      "constant": false,
      "inputs": [
        {
          "internalType": "string",
          "name": "name",
          "type": "string"
        },
        {
          "internalType": "uint256",
          "name": "age",
          "type": "uint256"
        },
        {
          "internalType": "uint256",
          "name": "height",
          "type": "uint256"
        },
        {
          "internalType": "bool",
          "name": "senior",
          "type": "bool"
        }
      ],
      "name": "addPerson",
      "outputs": [],
      "payable": false,
      "stateMutability": "nonpayable",
      "type": "function"
    },
    {
      "constant": true,
      "inputs": [],
      "name": "getPerson",
      "outputs": [
        {
          "internalType": "string",
          "name": "name",
          "type": "string"
        },
        {
          "internalType": "uint256",
          "name": "age",
          "type": "uint256"
        },
        {
          "internalType": "uint256",
          "name": "height",
          "type": "uint256"
        },
        {
          "internalType": "bool",
          "name": "senior",
          "type": "bool"
        }
      ],
      "payable": false,
      "stateMutability": "view",
      "type": "function"
    }
  ],
  "bytecode": "0x608060405234801561001057600080fd5b506105da806100206000396000f3fe608060405234801561001057600080fd5b50600436106100365760003560e01c8063399046991461003b5780638ec4dc9514610116575b600080fd5b6101146004803603608081101561005157600080fd5b810190808035906020019064010000000081111561006e57600080fd5b82018360208201111561008057600080fd5b803590602001918460018302840111640100000000831117156100a257600080fd5b91908080601f016020809104026020016040519081016040528093929190818152602001838380828437600081840152601f19601f82011690508083019250505050505050919291929080359060200190929190803590602001909291908035151590602001909291905050506101b2565b005b61011e610336565b604051808060200185815260200184815260200183151515158152602001828103825286818151815260200191508051906020019080838360005b83811015610174578082015181840152602081019050610159565b50505050905090810190601f1680156101a15780820380516001836020036101000a031916815260200191505b509550505050505060405180910390f35b600033905060405180608001604052808681526020018581526020018481526020018315158152506000808373ffffffffffffffffffffffffffffffffffffffff1673ffffffffffffffffffffffffffffffffffffffff1681526020019081526020016000206000820151816000019080519060200190610234929190610500565b50602082015181600101556040820151816002015560608201518160030160006101000a81548160ff02191690831515021790555090505060418411156102d45760016000808373ffffffffffffffffffffffffffffffffffffffff1673ffffffffffffffffffffffffffffffffffffffff16815260200190815260200160002060030160006101000a81548160ff02191690831515021790555061032f565b60008060008373ffffffffffffffffffffffffffffffffffffffff1673ffffffffffffffffffffffffffffffffffffffff16815260200190815260200160002060030160006101000a81548160ff0219169083151502179055505b5050505050565b60606000806000803390506000808273ffffffffffffffffffffffffffffffffffffffff1673ffffffffffffffffffffffffffffffffffffffff1681526020019081526020016000206000016000808373ffffffffffffffffffffffffffffffffffffffff1673ffffffffffffffffffffffffffffffffffffffff168152602001908152602001600020600101546000808473ffffffffffffffffffffffffffffffffffffffff1673ffffffffffffffffffffffffffffffffffffffff168152602001908152602001600020600201546000808573ffffffffffffffffffffffffffffffffffffffff1673ffffffffffffffffffffffffffffffffffffffff16815260200190815260200160002060030160009054906101000a900460ff16838054600181600116156101000203166002900480601f0160208091040260200160405190810160405280929190818152602001828054600181600116156101000203166002900480156104ea5780601f106104bf576101008083540402835291602001916104ea565b820191906000526020600020905b8154815290600101906020018083116104cd57829003601f168201915b5050505050935094509450945094505090919293565b828054600181600116156101000203166002900490600052602060002090601f016020900481019282601f1061054157805160ff191683800117855561056f565b8280016001018555821561056f579182015b8281111561056e578251825591602001919060010190610553565b5b50905061057c9190610580565b5090565b6105a291905b8082111561059e576000816000905550600101610586565b5090565b9056fea265627a7a72315820898d683791c2634e57abdb83300f20101202701c8ea167a857b8fb87476ace0d64736f6c634300050c0032",
  "source": "pragma solidity 0.5.12;\r\n\r\n// Mapping is like a better array. A better data structure where we don't have to remember a position in an array or have to look through an entire array to find a person.\r\n// \r\n\r\ncontract HelloWorld{\r\n    struct Person {\r\n        string name;\r\n        uint age;\r\n        uint height;\r\n        bool senior;\r\n    }\r\n    \r\n    // address = key type and it points to Person. We give mapping an address and it gives me a Person back. Name of mapping is people\r\n    mapping(address => Person) private people;\r\n\r\n// there are two ways to give a mapping the address:\r\n\r\n//  function add Person(address creator, string memory name, uint age, uint height, bool senior) public{   // problem: I as a user can input any address\r\n        function addPerson(string memory name, uint age, uint height, bool senior) public{\r\n        address creator = msg.sender;\r\n\r\n// this is how things are added to the mapping. With an array I needed .push\r\n        people[creator] = Person(name, age, height, senior);\r\n// the id from the previous array is not needed anymore        \r\n        if(age > 65){\r\n            people[creator].senior=true;\r\n        }\r\n//        else if(age<3){\r\n//            infant = true;\r\n//        }\r\n        else{\r\n            people[creator].senior=false;\r\n        }\r\n    }\r\n    \r\n    function getPerson() public view returns (string memory name, uint age, uint height, bool senior){\r\n        address creator = msg.sender;\r\n\r\n        return (people[creator].name, people[creator].age, people[creator].height, people[creator].senior);\r\n    }\r\n    \r\n}\r\n\r\n\r\n",
  "sourcePath": "C:\\Users\\rkoen\\WebDev\\Truffle-Assignment\\contracts\\solidity basics mapping.sol",
  "compiler": {
    "name": "solc",
    "version": "0.5.12+commit.7709ece9.Emscripten.clang"
  },
  "schemaVersion": "3.2.0",
  "updatedAt": "2020-09-21T21:46:06.690Z",
  "networkType": "ethereum",
  "devdoc": {
    "methods": {}
  },
  "userdoc": {
    "methods": {}
  }
}